:020000040800F2
:10000000C8370020810100083D7500089362000890
:1000100000000000000000000000000000000000E0
:100020000000000000000000000000002193000814
:1000300000000000000000006D7900080D99000824
:1000400093010008000000009301000893010008DC
:100050009301000893010008930100089301000830
:1000600000000000930100089301000893010008BC
:1000700093010008930100089301000800000000AC
:100080009301000893010008930100089301000800
:1000900093010008930100089301000893010008F0
:1000A0009301000893010008930100085DA0000877
:1000B00093010008930100080000000071C80008C7
:1000C00000F002F800F030F80CA030C8083824180E
:1000D0002D18A246671EAB4654465D46AC4201D180
:1000E00000F022F87E460F3E0FCCB6460126334282
:1000F00000D0FB1AA246AB463343184784E2000007
:10010000A4E200000023002400250026103A01D3B9
:1001100078C1FBD8520700D330C100D50B607047BF
:100120001FB51FBD10B510BD00F097F91146FFF7C0
:10013000F7FF0DF027FC00F0AFF903B4FFF7F2FF73
:1001400003BC00F0B5F9000070B505460C46164634
:1001500002E00FCC0FC5103E102EFAD2082E02D3AB
:1001600003CC03C5083E042E07D301CC01C5361FBE
:1001700003E021782970641C6D1C761EF9D270BDD5
:100180000748804707480047FEE7FEE7FEE7FEE72F
:10019000FEE7FEE704480549054A064B70470000A4
:1001A000A5990008C1000008C8270020C837002012
:1001B000C82F0020C82F0020FEB5054610460C466B
:1001C000184373D0AE468C460020AD1A01469C41C0
:1001D00067D36646002701243D46B61A9D4102D3E7
:1001E00013463A462124654676462F04360C3E4394
:1001F0002D0CB61A9D4104D3150C1B042B4312047D
:100200001034654676462F06360A3E432D0AB61A46
:100210009D4104D3150E1B022B4312020834654680
:1002200076462F0736093E432D09B61A9D4104D361
:10023000150F1B012B431201241D65467646AF079F
:10024000B6083E43AD08B61A9D4104D3950F9B00F6
:100250002B439200A41C65467646EF0776083E4382
:100260006D08B61A9D411AD392185B41641C16E0C2
:100270000018764665464941B71A9D4101910090A4
:1002800009D36046B11A98418E4684460098019978
:100290000025401C6941DD0752082A435B08641EA3
:1002A000E6D57246634603B0F0BDFFE70020014685
:1002B000C046C0462A462346F5E701E004C0091FB0
:1002C0000429FBD28B0701D50280801CC90700D00E
:1002D0000270704700290BD0C30702D00270401C87
:1002E000491E022904D3830702D50280801C891E7F
:1002F000E3E70022EEE70022DFE7002203098B425A
:100300002CD3030A8B4211D300239C464EE00346B4
:100310000B433CD4002243088B4231D303098B4268
:100320001CD3030A8B4201D394463FE0C3098B429E
:1003300001D3CB01C01A524183098B4201D38B01F7
:10034000C01A524143098B4201D34B01C01A52419A
:1003500003098B4201D30B01C01A5241C3088B42DF
:1003600001D3CB00C01A524183088B4201D38B00CA
:10037000C01A524143088B4201D34B00C01A52416C
:10038000411A00D201465241104670475DE0CA0F43
:1003900000D04942031000D34042534000229C4603
:1003A00003098B422DD3030A8B4212D3FC2289010D
:1003B00012BA030A8B420CD3890192118B4208D3E3
:1003C000890192118B4204D389013AD0921100E045
:1003D0008909C3098B4201D3CB01C01A5241830959
:1003E0008B4201D38B01C01A524143098B4201D386
:1003F0004B01C01A524103098B4201D30B01C01AB1
:100400005241C3088B4201D3CB00C01A524183082A
:100410008B4201D38B00C01A5241D9D243088B4280
:1004200001D34B00C01A5241411A00D20146634623
:1004300052415B10104601D34042002B00D5494287
:10044000704763465B1000D3404201B50020C046B0
:10045000C04602BD704770477047754600F024F8EB
:10046000AE46050069465346C008C000854618B030
:1004700020B5FFF78FFE60BC00274908B64600266E
:10048000C0C5C0C5C0C5C0C5C0C5C0C5C0C5C0C544
:10049000403D49008D46704710B50446C046C046F1
:1004A0002046FFF74AFE10BD004870476427002031
:1004B00001491820ABBEFEE726000200704770B568
:1004C0008C180578401C6B075B0F01D10378401C2A
:1004D0002A1106D10278401C03E00678401C0E70F9
:1004E000491C5B1EF9D12B0705D40023521E0DD4E5
:1004F0000B70491CFAE70378401CCB1A921C03E0EE
:100500001D780D70491C5B1C521EF9D5A142D8D331
:10051000002070BD00B50020FE490870FE4908703B
:10052000FE490870FE490870FE490870FE490870CF
:10053000FE490870FE490870FE490870FE490870BF
:10054000FE490870FE490870FE490870FE490870AF
:10055000FE490870FE49087000BF1BE01C214143A2
:10056000FC4A8918897A00290CD11C214143891839
:100570004978002906D101221C214143F54BC918B5
:100580004A7205E000221C214143F24BC9184A720D
:10059000411CC8B2F04909788842DFDBED48C4301D
:1005A000407AE44909780843E2490870084600782F
:1005B0004000E849A831497A0843DE4908700846F6
:1005C00000784000E3498C31497A0843D9490870E2
:1005D000084600784000DF497031497A0843D54920
:1005E0000870084600784000DA495431497A0843D7
:1005F000D0490870084600784000D6493831497A19
:100600000843CC490870084600784000D1491C31A5
:10061000497A0843C7490870084600784000CD4928
:10062000497A0843C3490870CC48407AC2490978DE
:100630000843C1490870084600784000C7491C3982
:10064000497A0843BC490870084600784000C3490D
:100650003839497A0843B84908700846007840009C
:10066000BE495439497A0843B349087008460078AE
:100670004000BA497039497A0843AF4908700846C2
:1006800000784000B5498C39497A0843AA49087076
:10069000084600784000B149A839497A0843A6497C
:1006A0000870084600784000AC49C439497A0843CC
:1006B000A1490870A948E030407AA0490978084368
:1006C0009E490870084600784000A449C431497A20
:1006D00008439A4908700846007840009F49A831AD
:1006E000497A0843954908700846007840009B49BC
:1006F0008C31497A084391490870084600784000D7
:1007000096497031497A08438C4908700846007848
:10071000400092495431497A084388490870084694
:10072000007840008D493831497A08438349087080
:1007300008460078400089491C31497A08437F49BE
:1007400008708748407A7E49097808437C490870D8
:1007500008460078400082491C39497A08437849A4
:1007600008700846007840007D493839497A0843C6
:100770007349087008460078400079495439497A2D
:1007800008436F4908700846007840007449703982
:10079000497A08436A490870084600784000704961
:1007A0008C39497A08436649087008460078400049
:1007B0006B49A839497A08436149087008460078AE
:1007C00040006749C439497A08435D490870644864
:1007D000E030407A5B49097808435A490870084676
:1007E000007840005E49C431497A08435549087091
:1007F0000846007840005A49A831497A08435149CF
:10080000087008460078400055498C31497A084301
:100810004C49087008460078400051497031497AC7
:100820000843484908700846007840004C49543154
:10083000497A08434349087008460078400048490F
:100840003831497A08433F4908700846007840002B
:1008500043491C31497A08433A4908704148407A73
:10086000394909780843384908700846007840003B
:100870003C491C39497A08433349087008460078D6
:10088000400038493839497A08432F4908700846EA
:100890000078400033495439497A08432A4908709E
:1008A0000846007840002F497039497A08432649A4
:1008B00008700846007840002A498C39497A084374
:1008C000214908700846007840002649A839497A2D
:1008D00008431D4908700846007840002149C43982
:1008E000497A0843184908701E48E030407A174991
:1008F00009780843154908700846007840001949EE
:10090000C431497A0843114908700846007840000C
:10091000144929E06C0000206D0000206E000020CA
:100920006F00002070000020710000207200002085
:100930007300002074000020750000207600002065
:100940007700002078000020790000207A00002045
:100950007B000020F40D0020B5000020980F00203F
:100960005811002018130020A831497A0843FE4985
:100970000870084600784000FC49497A0843FA4963
:100980000870084600784000F8491C39497A084345
:10099000F5490870084600784000F4493839497A2A
:1009A0000843F1490870084600784000EF4954397F
:1009B000497A0843EC490870084600784000EB4942
:1009C0007039497A0843E8490870E948407AE949AA
:1009D00009780843E7490870084600784000E44970
:1009E0001C39497A0843E3490870084600784000FA
:1009F000DF493839497A0843DE49087008460078EB
:100A00004000DB495439497A0843DA4908700846FE
:100A100000784000D6497039497A0843D5490870B2
:100A2000084600784000D2498C39497A0843D149B8
:100A30000870084600784000CC498C31497A084358
:100A4000CC490870084600784000C8497031497A9E
:100A50000843C8490870C848807AC84909780843DB
:100A6000C6490870084600784000C3491C39897A95
:100A70000843C2490870084600784000BE4938392A
:100A8000897A0843BD490870084600784000BA4991
:100A90005439897A0843B9490870084600784000FB
:100AA000B5497039897A0843B44908700846007816
:100AB0004000B1498C39897A0843B049087008462A
:100AC00000784000AC49A839897A0843AB490870DE
:100AD000084600784000A849C439897A0843A749E4
:100AE0000870A548E030807AA54909780843A449F0
:100AF00008700846007840009F49C431897A08434D
:100B00009F4908700846007840009B49A831897ABF
:100B100008439B49087008460078400096498C318C
:100B2000897A08439649087008460078400092493F
:100B30007031897A0843924908700846007840006D
:100B40008D495431897A08438D49087008460078E8
:100B5000400089493831897A084389490870084634
:100B60000078400084491C31897A08438449087020
:100B70008448807A84490978084383490870084684
:100B8000007840007F491C39897A08437E49087003
:100B90000846007840007B493839897A08437A4909
:100BA000087008460078400076495439897A08432D
:100BB0007549087008460078400072497039897A92
:100BC0000843714908700846007840006D498C3927
:100BD000897A08436C4908700846007840006949E2
:100BE000A839897A084368490870084600784000A7
:100BF0006449C439897A0843634908706148E03020
:100C0000807A62490978084360490870084600788C
:100C100040005C49C431897A08435C490870084641
:100C2000007840005749A831897A0843574908702D
:100C300008460078400053498C31897A084353496B
:100C400008700846007840004E497031897A0843A0
:100C50004E4908700846007840004A495431897A64
:100C600008434A4908700846007840004549383131
:100C7000897A084345490870084600784000414990
:100C80001C31897A0843414908704148807A4149BA
:100C9000097808433F4908700846007840003C49FD
:100CA0001C39897A08433B4908700846007840009F
:100CB00037493839897A0843364908700846007838
:100CC000400033495439897A08433249087008464C
:100CD000007840002E497039897A08432D49087000
:100CE0000846007840002A498C39897A0843294906
:100CF00008700846007840002549A839897A0843D9
:100D0000244908700846007840002149C439897A8E
:100D100008432049087015488C38807A1E490978A4
:100D200008431D4908700846007840000F49A8395B
:100D3000897A084318490870084600784000144929
:100D4000A831897A084314490870084600784000A1
:100D50000F498C31897A08430F490870084600789A
:100D600040000B49703119E07A000020A4130020E4
:100D7000D81400207B000020B80E00206C0000205A
:100D80006D000020781000206E0000206F00002011
:100D9000381200207000002071000020897A08437A
:100DA000544908700846007840005349897A08433E
:100DB000504908700846007840004F491C39897A2C
:100DC00008434C4908700846007840004A493839C1
:100DD000897A0843474908704848807A4849097821
:100DE00008434749087008460078400043491C39C9
:100DF000897A0843424908700846007840003F4914
:100E00003839897A08433E4908700846007840001E
:100E10003A495439897A08433949087008460078B4
:100E2000400036497039897A0843354908700846C8
:100E30000078400031498C39897A0843304908707C
:100E40000846007840002D49A839897A08432C4982
:100E500008700846007840002749A831897A08437D
:100E6000274908702548E030807A264909780843E8
:100E7000244908700846007840002049C431897A26
:100E80000843204908700846007840001B49A831F3
:100E9000897A08431B4908700846007840001749C2
:100EA0008C31897A08431749087008460078400059
:100EB00012497031897A084312490870084600784F
:100EC00040000E495431897A08430E49087008469B
:100ED0000078400009493831897A08430949087087
:100EE00008460078400005491C31897A08430549C5
:100EF000087000BD710000208C120020F813002043
:100F0000720000207300002070B5002425E2FE4826
:100F1000005D1C214843FD49085CFB49095D1C221A
:100F20005143FA4A891889784840012808D1F6487F
:100F3000005D1C21484311464018C078002803D0AA
:100F4000F348007801287CD1EF48005D1C2148431C
:100F5000EE494018C07A002813D1EE4800780F28D7
:100F60000FD1E948005D1C214843E8494018C07989
:100F7000002806D16420E8490870E8480078E8496C
:100F800008700121E048005D1C225043DF4A8018B0
:100F9000C172DD48005D1C21484311464018C079EC
:100FA000002854D1DF480078002808D10021D64815
:100FB000005D1C225043D54A8018417007E0012192
:100FC000D148005D1C225043D04A80184170D64859
:100FD0000078C04300283AD0CB48005D1C2148432C
:100FE000CA494018007A002831D1C748005D1C2149
:100FF0004843C64940188079012828D1C248005D7D
:101000001C214843C1494018407900280AD10022D8
:101010001021C64802F097FD00228021C34802F04B
:1010200092FD14E0B848005D1C214843B7494018C0
:101030000079012806D100221021BC4802F083FD6E
:1010400005E008E000228021B84802F07CFD012084
:10105000B74908708EE0AC48005D1C214843AB499D
:101060004018C0780028F5D100250021A648005D71
:101070001C225043A54A80188172A348005D1C229F
:101080005043A24A8018C1729F48005D1C22504301
:101090009E4A8018C1719C48005D1C2250439B4AA7
:1010A0008018017201219848005D1C225043974A24
:1010B000801841709448005D1C2148431146401837
:1010C0000079012808D09048005D1C214843114652
:1010D0004018407900280DD195480078002809D1A2
:1010E000012000F089FD002804D1012210218F4841
:1010F00002F029FD8448005D1C21484383494018C3
:101100000079002808D08048005D1C2148437F49B1
:101110004018407900280DD185480078002809D171
:10112000022000F069FD002804D1012280217F48BF
:1011300002F009FD00200CE07349095C1C225143B8
:10114000724A8918C97A012901D1691CCDB2411CA2
:10115000C8B2784909788842EEDB002D09D1012216
:101160008021724802F0EFFC012210216F4802F04A
:10117000EAFC00BF6448005D1C21484363494018F5
:10118000807900287DD06048005D1C2148435F497C
:10119000085C5D49095D1C2251435C4A89188978C5
:1011A0004840012808D15848005D1C214843114699
:1011B0004018C078012808D05348005D1C214843DE
:1011C00052494018807A012872D14F48005D1C2195
:1011D00048434E494018C079002851D14A48005D23
:1011E0001C21484349494018807A00280AD14948BF
:1011F00000780F2806D164204749087047480078D6
:101200004749087001214048005D1C2250433F4A75
:101210008018817243480078002808D100213A489C
:10122000005D1C225043394A8018417007E00121BB
:101230003548005D1C225043344A801841703A48BA
:101240000078C04300281BD02F48005D1C21484374
:101250002E494018007A00287DD12B48005D1C21C2
:1012600048432A494018407900280BD100228021A8
:101270002E4802F068FC002210212C4802F063FC8A
:1012800069E02EE02048005D1C2148431F494018BA
:101290000079012805D100221021244802F053FCD6
:1012A00059E000228021214802F04DFC53E0FFE785
:1012B0001548005D1C21484314494018C078012896
:1012C00049D100211048005D1C2250430F4A80186C
:1012D000C1710D48005D1C2250430C4A80180172F8
:1012E00039E00948005D1C2148430849085C06496B
:1012F000095D1C225143054A891889784840012814
:1013000021D10021004817E0B30D0020F40D00208A
:1013100057000020AE00002051000020B000002047
:101320005200002044000020550000200004004826
:10133000D5000020B5000020005D1C2250430A4A61
:101340008018417007E001210848005D1C225043CD
:10135000054A80184170601CC4B205480078844278
:1013600000DAD4E570BD0000F40D0020B30D0020BC
:10137000B50000200346042B16D008DC002B0FD04C
:10138000012B0ED0022B0DD0032B12D10BE0202B02
:101390000BD0212B0AD0222B09D0232B09D107E017
:1013A00008E007E006E005E004E003E002E001E019
:1013B00000E000BF00BF0020704700207047000021
:1013C00010B500220449054808F0DFFF044903482E
:1013D00008F0D1FF002010BD7C230020BC150020A8
:1013E000941F002070B504460D462146034808F0BE
:1013F000C2FF024808F091FF002070BDBC1500201C
:10140000F8B504460D4600260948876B8520800004
:10141000C059002801D00120F8BD2A4621460548C0
:1014200008F0B3FF034809F047F806463046F3E7F3
:101430003C180020BC15002030B502460B46FF24A6
:101440000C4D2C700C4D2C70002110E0505C094D9F
:101450002D786840094C245C074D2D786C40054D73
:101460002C70074C245C044D2C704C1CE1B299424A
:10147000ECDB30BDBC000020BB00002066E10008B2
:1014800066E2000800B50020FE4908800F20FE49F2
:10149000FC4A12888854FB480088401CF94908809F
:1014A00008460088801CF949085CF9490870F6492B
:1014B000F44A12888854F3480088401CF149088097
:1014C00008460088801CF149085CF2490870EE4922
:1014D000EC4A12888854EB480088401CE94908808F
:1014E00008460088801CE949085CEB490870E64919
:1014F000E44A12888854E3480088401CE149088087
:1015000008460088801CE149095CE4480170DE4817
:10151000DC4A12888154DB480088401CD949088085
:1015200008460088801CD949085CDD490870D64906
:10153000D44A12888854D3480088401CD149088076
:1015400008460088801CD149085CD6490870CE49FD
:10155000CC4A12888854CB480088401CC94908806E
:1015600008460088801CC949095CCF480170C648FC
:10157000C44A12888154C3480088401CC14908806D
:1015800008460088801CC149095CC8480170BE48F3
:10159000BC4A12888154BB480088401CB949088065
:1015A00008460088801CB949085CC1490870B649E2
:1015B000B44A12888854B3480088401CB149088056
:1015C00008460088801CB149085CBA490870AE49D9
:1015D000AC4A12888854AB480088401CA94908804E
:1015E00008460088801CA949085CB3490870A649D0
:1015F000A44A12888854A3480088401CA149088046
:1016000008460088801CA149085CAC4908709E49C6
:101610009C4A128888549B480088401C994908803D
:1016200008460088801C9949085CA54908709649BD
:10163000944A1288885493480088401C9149088035
:1016400008460088801C9149095C9E4801708E48BC
:101650008C4A128881548B480088401C8949088034
:1016600008460088801C8949095C974801708648B3
:10167000844A1288815483480088401C814908802C
:1016800008460088801C8149095C904801707E48AA
:101690007C4A128881547B480088401C7949088024
:1016A00008460088801C7949095C894801707648A1
:1016B000744A1288815473480088401C714908801C
:1016C00008460088801C7149095C824801706E4898
:1016D0006C4A128881546B480088401C6949088014
:1016E00008460088801C6949095C7B48017066488F
:1016F000644A1288815463480088401C614908800C
:1017000008460088801C6149095C744801705E4885
:101710005C4A128881545B480088401C5949088003
:1017200008460088801C5949095C6D48017056487C
:10173000544A1288815453480088401C51490880FB
:1017400008460088801C5149085C664908704E496B
:101750004C4A128888544B480088401C49490880EC
:1017600008460088801C4949085C5F490870464962
:10177000444A1288885443480088401C41490880E4
:1017800008460088801C4149085C584908703E4959
:101790003C4A128888543B480088401C39490880DC
:1017A00008460088801C3949085C51490870364950
:1017B000344A1288885433480088401C31490880D4
:1017C00008460088801C3149085C4A4908702E4947
:1017D0002C4A128888542B480088401C29490880CC
:1017E00008460088801C2949085C4349087026493E
:1017F000244A1288885423480088401C21490880C4
:1018000008460088801C2149085C3C4908701E4934
:101810001C4A128888541B480088401C19490880BB
:1018200008460088801C1949085C3549087016492B
:10183000144A1288885413480088401C11490880B3
:1018400008460088801C1149085C2E4908700E4922
:101850000C4A128888540B480088401C09490880AB
:1018600008460088801C0949095C27480170064821
:10187000044A1288815403480088401C01490880AA
:10188000084643E0D2000020F4140020941F0020FA
:1018900086000020870000208800002089000020AA
:1018A0008A0000208B0000208C0000208D0000208A
:1018B0008E0000208F00002090000020910000206A
:1018C000920000209300002094000020950000204A
:1018D000960000209700002098000020990000202A
:1018E0009A0000209B0000209C0000209D0000200A
:1018F0009E0000209F000020A0000020A1000020EA
:10190000A2000020A3000020A40000200088801C6A
:101910007949085C7949087079497A4A128888546B
:1019200078480088401C7749088008460088801C59
:101930007149085C744908707149724A1288885468
:1019400070480088401C6F49088008460088801C49
:101950006949085C6D49087069496A4A1288885467
:1019600068480088401C6749088008460088801C39
:101970006149095C664801706148624A1288815475
:1019800060480088401C5F49088008460088801C29
:101990005949085C5F49087059495A4A1288885465
:1019A00058480088401C5749088008460088801C19
:1019B0005149085C584908705149524A1288885464
:1019C00050480088401C4F49088008460088801C09
:1019D0004949085C5149087049494A4A1288885463
:1019E00048480088401C4749088008460088801CF9
:1019F0004149095C4A4801704148424A1288815471
:101A000040480088401C3F49088008460088801CE8
:101A10003949095C4348017039483A4A128881546F
:101A200038480088401C3749088008460088801CD8
:101A30003149095C3C4801703148324A128881546E
:101A400030480088401C2F49088008460088801CC8
:101A50002949085C3549086029492A4A128888546E
:101A600028480088401C2749088008460088801CB8
:101A70002149085C2E4908702149224A128888545D
:101A800020480088401C1F490880294800784000F1
:101A9000284908601B480088801C1749085C2649B3
:101AA00008701749174A1288885416480088401C45
:101AB0001449088008460088801C0F49095C1F48AB
:101AC00001700F480F4A128881540E480088401C4C
:101AD0000C49088008460088801C0749095C1848A2
:101AE00001700748074A1288815406480088401C44
:101AF0000449088000BD0000941F0020A5000020BC
:101B0000F4140020D2000020A6000020A70000202E
:101B1000A8000020A9000020AA000020AB0000209F
:101B2000AC000020AD000020AE000020B00000207E
:101B3000B400002048000020B5000020B6000020BE
:101B4000B900002000200DE0C11C084A525C1C2195
:101B50004143074BC9188A74064B01462F315A542A
:101B6000411CC8B21E28EFDB70470000941F002004
:101B7000F40D0020F414002000200EE0C11C184ACF
:101B8000525C1C311C235943164BC9188A74164BDE
:101B900001464D315A54411CC8B22228EEDBC11C0B
:101BA0000F4A525C11490A700F4B01464D315A548D
:101BB000411CC8B2C11C0A4A525C0D490A60014668
:101BC0004D315A54411CC8B2C11C054A525C0949E6
:101BD0000A7001464D315A54411CC8B2704700008A
:101BE000941F0020F40D0020F41400203100002088
:101BF000340000203000002030B502460020FE4BAB
:101C00001870012A7ED1FD48007810287BDB002166
:101C10001C204843FA4BC018807A1C234B43F84CD5
:101C20001B19DB7A18431C234B431B19DB799843A0
:101C30001C234B431B191B7913401C244C43F04DB0
:101C400064196479144023431840EB4B1870491C05
:101C50001C2048432B46C018807A1C234B432C463B
:101C60001B19DB7A18431C234B431B19DB79984360
:101C70001C234B431B191B790B401C244C43641938
:101C800064790C4023431840DB4B1B781843DA4B34
:101C90001870491C1C2048432B46C018807A1C230E
:101CA0004B432C461B19DB7A18431C234B431B194F
:101CB000DB7998431C234B431B191B7913401C24CD
:101CC0004C4364196479144023431840CA4B1B7871
:101CD0001843C94B1870491C1C2048432B46C01898
:101CE000807A1C234B432C461B19DB7A18431C2398
:101CF0004B431B19DB7998431C234B431B191B795E
:101D0000134001E0FEE3B4E11C244C436419647900
:101D1000144023431840B84B1B781843B64B187037
:101D2000491C1C2048432B46C018807A1C234B4377
:101D30002C461B19DB7A18431C234B431B19DB79F8
:101D400098431C234B431B191B7913401C244C4301
:101D500064196479144023431840A74B1B78184337
:101D6000A54B1870491C1C2048432B46C018807A8C
:101D70001C234B432C461B19DB7A18431C234B4373
:101D80001B19DB7998431C234B431B191B79134008
:101D90001C244C4364196479144023431840964B27
:101DA0001B781843944B1870491C1C2048432B4641
:101DB000C018807A1C234B432C461B19DB7A18432E
:101DC0001C234B431B19DB7998431C234B431B19E2
:101DD0001B7913401C244C43641964791440234339
:101DE0001840854B1B781843834B1870491C1C20E6
:101DF00048432B46C018807A1C234B432C461B19A2
:101E0000DB7A18431C234B431B19DB7998431C23B3
:101E10004B431B191B7913401C244C4364196479F0
:101E2000144023431840744B1B781843724B1870AE
:101E3000481CC1B21C2048432B46C018807A1C2382
:101E40004B432C461B19DB7A18431C234B431B19AD
:101E5000DB7998431C234B431B191B7913401C242B
:101E60004C4364196479144023431840624B1B7837
:101E70001843614B1870481CC1B21C2048432B46C4
:101E8000C018807A1C234B432C461B19DB7A18435D
:101E90001C234B431B19DB7998431C234B431B1911
:101EA0001B7913401C244C43641964791440234368
:101EB0001840514B1B7818434F4B1870481CC1B247
:101EC0001C2048432B46C018807A1C234B432C46C9
:101ED0001B19DB7A18431C234B431B19DB799843EE
:101EE0001C234B431B191B7913401C244C436419BE
:101EF00064791440234318403F4B1B7818433E4BF2
:101F00001870481CC1B21C2048432B46C018807A68
:101F10001C234B432C461B19DB7A18431C234B43D1
:101F20001B19DB7998431C234B431B191B79134066
:101F30001C244C43641964791440234318402E4BED
:101F40001B7818432C4B1870481CC1B21C20484306
:101F50002B46C018807A1C234B432C461B19DB7A76
:101F600018431C234B431B19DB7998431C234B4319
:101F70001B191B7913401C244C43641964791440C9
:101F8000234318401C4B1B7818431B4B1870481CEC
:101F9000C1B21C2048432B46C018807A1C234B43F7
:101FA0002C461B19DB7A18431C234B431B19DB7986
:101FB00098431C234B431B191B7913401C244C438F
:101FC000641964791440234318400B4B1B78184361
:101FD000094B1870481CC1B21C2048432B46C0183E
:101FE000807A1C234B432C461B19DB7A18431C2395
:101FF0004B431B19DB7905E0D4000020B50000201D
:10200000F40D002098431C234B431B191B791340EC
:102010001C244C4364196479144023431840FE4B3C
:102020001B781843FC4B1870481CC1B21C20484355
:102030002B46C018807A1C234B432C461B19DB7A95
:1020400018431C234B431B19DB7998431C234B4338
:102050001B191B7913401C244C43641964791440E8
:1020600023431840EC4B1B781843EB4B1870481C6B
:10207000C1B2EA48007818287EDBE948007CE94BC9
:102080001B7C1843E84B1B7C9843E84B1B7CE84CBB
:10209000247C23431840E04B1B781843DE4B187018
:1020A000DF48407CDF4B5B7C1843DF4B5B7C984315
:1020B000DE4B5B7CDE4C647C23431840D64B1B78A4
:1020C0001843D54B1870D648807CD64B9B7C184360
:1020D000D54B9B7C9843D54B9B7CD54CA47C234310
:1020E0001840CD4B1B781843CB4B1870CC48C07CA4
:1020F000CC4BDB7C1843CC4BDB7C9843CB4BDB7C61
:10210000CB4CE47C23431840C34B1B781843C24B91
:102110001870C348007DC34B1B7D1843C24B1B7D09
:102120009843C24B1B7DC24C247D23431840BA4BBD
:102130001B781843B84B1870B948407DB94B5B7D8C
:102140001843B94B5B7D9843B84B5B7DB84C647DBD
:1021500023431840B04B1B781843AF4B1870B0485E
:10216000807DB04B9B7D1843AF4B9B7D9843AF4B1D
:102170009B7DAF4CA47D00E019E023431840A64BA3
:102180001B781843A44B1870A548C07DA54BDB7D78
:102190001843A54BDB7D9843A44BDB7DA44CE47D29
:1021A000234318409C4B1B7818439B4B18709B484B
:1021B000007820287EDB9A48007E9A4B1B7E1843CD
:1021C000994B1B7E9843994B1B7E994C247E23434D
:1021D0001840914B1B7818438F4B18709048407EE5
:1021E000904B5B7E1843904B5B7E98438F4B5B7E9E
:1021F0008F4C647E23431840874B1B781843864BD3
:1022000018708748807E874B9B7E1843864B9B7E49
:102210009843864B9B7E864CA47E234318407E4B7E
:102220001B7818437C4B18707D48C07E7D4BDB7E4D
:1022300018437D4BDB7E98437C4BDB7E7C4CE47EFD
:1022400023431840744B1B781843734B1870744821
:10225000007F744B1B7F1843734B1B7F9843734B5A
:102260001B7F734C247F234318406B4B1B78184310
:10227000694B18706A48407F6A4B5B7F18436A4B12
:102280005B7F9843694B5B7F694C647F23431840B5
:10229000614B1B781843604B18706148807F614B1D
:1022A0009B7F1843604B9B7F9843604B9B7F604CA8
:1022B000A47F00E019E023431840574B1B781843D4
:1022C000554B18705648C07F564BDB7F1843564B12
:1022D000DB7F9843554BDB7F554CE47F234318400D
:1022E0004D4B1B7818434C4B18704C4800782828ED
:1022F0007EDB4B48203000784A4B20331B78184354
:10230000494B20331B789843484B20331B78484C6B
:1023100020342478234318403F4B1B7818433E4B0E
:1023200018703F48203040783E4B20335B7818438C
:102330003D4B20335B7898433C4B20335B783C4CDF
:102340002034647823431840334B1B781843324BB6
:102350001870334820308078324B20339B781843F4
:10236000314B20339B789843304B20339B78304C53
:102370002034A47823431840274B1B781843264B5E
:10238000187027482030C078264B2033DB7818435C
:10239000254B2033DB789843244B2033DB78244CC7
:1023A0002034E478234318401B4B1B7818431A4B06
:1023B00018701B48203000791A4B20331B791843C2
:1023C000194B20331B799843184B20331B79184C39
:1023D00020342479234318400F4B1B7818430E4BAD
:1023E00018700F48203040790E4B20335B7900E0A5
:1023F00046E018430C4B20335B7998430B4B20335A
:102400005B790B4C2034647923431840024B1B78D2
:102410001843014B18700DE0D4000020B5000020D7
:1024200063090020A3090020A3080020E30700207F
:1024300023080020FE488079FE4B9B791843FE4B11
:102440009B799843FD4B9B79FD4CA479234318401D
:10245000FC4B1B781843FB4B1870F548C079F54BC3
:10246000DB791843F44BDB799843F44BDB79F44C7C
:10247000E47923431840F34B1B781843F14B187051
:10248000F148007830287DDBE948007AE94B1B7A77
:102490001843E94B1B7A9843E84B1B7AE84C247AA3
:1024A00023431840E74B1B781843E64B1870E0486D
:1024B000407AE04B5B7A1843DF4B5B7A9843DF4B03
:1024C0005B7ADF4C647A23431840DE4B1B78184359
:1024D000DC4B1870D648807AD64B9B7A1843D64B83
:1024E0009B7A9843D54B9B7AD54CA47A23431840CA
:1024F000D44B1B781843D34B1870CD48C07ACD4BC2
:10250000DB7A00E0A8E11843CB4BDB7A9843CB4B56
:10251000DB7ACB4CE47A23431840CA4B1B78184330
:10252000C84B1870C248007BC24B1B7B1843C24B80
:102530001B7B9843C14B1B7BC14C247B234318401E
:10254000C04B1B781843BF4B1870B948407BB94B40
:102550005B7B1843B84B5B7B9843B84B5B7BB84CB9
:10256000647B23431840B74B1B781843B54B187056
:10257000AF48807BAF4B9B7B1843AF4B9B7B984313
:10258000AE4B00E01CE09B7BAD4CA47B234318408A
:10259000AC4B1B781843AB4B1870A548C07BA54BC0
:1025A000DB7B1843A44BDB7B9843A44BDB7BA44C25
:1025B000E47B23431840A34B1B781843A14B1870AE
:1025C000A148007838287DDB9948007C994B1B7C1A
:1025D0001843994B1B7C9843984B1B7C984C247C4C
:1025E00023431840974B1B781843964B187090481C
:1025F000407C904B5B7C18438F4B5B7C98438F4BAC
:102600005B7C8F4C647C234318408E4B1B781843B3
:102610008C4B18708648807C864B9B7C1843864B7D
:102620009B7C9843854B9B7C854CA47C2343184022
:10263000844B1B781843834B18707D48C07C7D4BBE
:10264000DB7C18437C4BDB7C98437C4BDB7C7C4CF9
:10265000E47C234318407B4B1B781843794B18705C
:102660007348007D734B1B7D1843734B1B7D984350
:10267000724B1B7D724C247D23431840714B1B7899
:102680001843704B18706A48407D6A4B5B7D184355
:10269000694B5B7D9843694B5B7D694C647D23434B
:1026A0001840684B1B781843664B18706048807D53
:1026B000604B9B7D1843604B9B7D98435F4B9B7D9C
:1026C0005F4C00E01AE0A47D234318405D4B1B786B
:1026D00018435C4B18705648C07D564BDB7D184341
:1026E000554BDB7D9843554BDB7D554CE47D2343B7
:1026F0001840544B1B781843524B187052480078BE
:10270000402801DA00F013FF4948007E494B1B7E48
:102710001843494B1B7E9843484B1B7E484C247EF4
:1027200023431840474B1B781843464B18704048CA
:10273000407E404B5B7E18433F4B5B7E98433F4B54
:102740005B7E3F4C647E234318403E4B1B7818430E
:102750003C4B18703648807E364B9B7E1843364B78
:102760009B7E9843354B9B7E354CA47E234318407B
:10277000344B1B781843334B18702D48C07E2D4BBB
:10278000DB7E18432C4BDB7E98432C4BDB7E2C4CA2
:10279000E47E234318402B4B1B781843294B1870B9
:1027A0002348007F234B1B7F1843234B1B7F9843F9
:1027B000224B1B7F224C247F23431840214B1B7844
:1027C0001843204B18701A48407F1A4B5B7F184300
:1027D000194B5B7F9843194B5B7F194C647F2343F4
:1027E0001840184B1B781843164B18701048807F00
:1027F000104B9B7F1843104B9B7F98430F4B9B7F45
:102800000F4CA47F234318400E4B1B7818430D4BED
:1028100018700748C07F074BDB7F1843064BDB7FF0
:102820009843064BDB7F064CE47F234318400DE0C2
:1028300083090020C3090020C308002003080020EA
:1028400043080020D4000020B5000020FE4B1B7878
:102850001843FD4B187055E7022AFCD1FB4800785D
:1028600010287DDB00211C204843F94BC018807ADA
:102870001C234B43F64C1B19DB7A18431C234B4398
:102880001B19DB7998431C234B431B191C7901232B
:10289000A3431C244C43EE4D64196479E407E40F10
:1028A00023431840E84B1870491C1C2048432B4612
:1028B000C018807A1C234B432C461B19DB7A184323
:1028C0001C234B431B19DB7998431C234B431B19D7
:1028D0001C790123A3431C244C43641964790C40E4
:1028E00023431840D84B1B781843D74B1870491C0A
:1028F0001C2048432B46C018807A1C234B432C468F
:102900001B19DB7A18431C234B431B19DB799843B3
:102910001C234B431B191C790123A3431C244C4348
:1029200064196479E407E40F23431840C64B1B780D
:102930001843C54B1870491C1C2048432B46C0182F
:10294000807A1C234B432C461B19DB7A18431C232B
:102950004B431B19DB7998431C234B431B1900E0A5
:10296000D0E11C790123A3431C244C4364196479EE
:10297000E407E40F23431840B34B1B781843B24BD2
:102980001870491C1C2048432B46C018807A1C2311
:102990004B432C461B19DB7A18431C234B431B1952
:1029A000DB7998431C234B431B191C790123A34358
:1029B0001C244C4364196479E407E40F2343184052
:1029C000A14B1B781843A04B1870491C1C2048438E
:1029D0002B46C018807A1C234B432C461B19DB7AEC
:1029E00018431C234B431B19DB7998431C234B438F
:1029F0001B191C790123A3431C244C4364196479DB
:102A0000E407E40F234318408F4B1B7818438E4B89
:102A10001870491C1C2048432B46C018837A1C2080
:102A200048432C460019C07A03431C204843001930
:102A3000C07983431C204843001904790120A04336
:102A40001C244C4364196479E407E40F20430340D9
:102A50007D48007803437C480370491C1C20484390
:102A60002B46C018807A1C234B432C461B19DB7A5B
:102A700018431C234B431B19DB7998431C234B43FE
:102A80001B191C790123A3431C244C43641964794A
:102A9000E407E40F234318406B4B1B7818436A4B41
:102AA0001870481CC1B21C2048432B46C018837ABA
:102AB0001C2048432C460019C07A03431C2048437D
:102AC0000019C07983431C20484300190479012070
:102AD000A0431C244C4364196479E407E40F2043A9
:102AE000034059480078034357480370481CC1B25B
:102AF0001C2048432B46C018837A1C2048432C4690
:102B00000019C07A03431C2048430019C07983434D
:102B10001C204843001904790120A0431C244C4385
:102B200064196479E407E40F2043034046480078C1
:102B3000034345480370481CC1B21C2048432B4640
:102B4000C018837A1C2048432C460019C07A0343DE
:102B50001C2048430019C07983431C2048430019B6
:102B600004790120A0431C244C4364196479E407D0
:102B7000E40F204303403448007803433248037095
:102B8000481CC1B21C2048432B46C018807A1C2325
:102B90004B432C461B19DB7A18431C234B431B1950
:102BA000DB7998431C234B431B191C790123A34356
:102BB0001C244C4364196479E407E40F2343184050
:102BC000214B1B781843204B1870481CC1B21C20A5
:102BD00048432B46C018837A1C2048432C460019D2
:102BE000C07A03431C2048430019C07983431C204A
:102BF0004843001904790120A0431C244C43641964
:102C00006479E407E40F204303400F48007803434E
:102C10000D480370481CC1B21C2048432B46C01805
:102C2000807A1C234B432C461B19DB7A18431C2348
:102C30004B431B19DB7998431C234B431B191C790D
:102C40000123A3431C2405E0D4000020B50000208C
:102C5000F40D00204C4364196479E407E40F234326
:102C60001840FE4B1B781843FC4B1870481CC1B22F
:102C70001C2048432B46C018807A1C234B432C460B
:102C80001B19DB7A18431C234B431B19DB79984330
:102C90001C234B431B191C790123A3431C244C43C5
:102CA00064196479E407E40F23431840EB4B1B7865
:102CB0001843EA4B1870481CC1B21C2048432B46ED
:102CC000C018807A1C234B432C461B19DB7A18430F
:102CD0001C234B431B19DB7998431C234B431B19C3
:102CE0001C790123A3431C244C4364196479E40731
:102CF000E40F23431840D94B1B781843D74B187067
:102D0000481CC1B2D648007818287DDBD548007C25
:102D1000D54B1B7C1843D54B1B7C9843D44B1B7C59
:102D2000DB43D44C247C23431840CC4B1B78184302
:102D3000CA4B1870CB48407CCB4B5B7C1843CB4BC9
:102D40005B7C9843CA4B5B7CDB43CA4C647C23436B
:102D50001840C24B1B781843C04B1870C148807C88
:102D6000C14B9B7C1843C14B9B7C9843C04B9B7CC5
:102D7000DB43C04CA47C23431840B84B1B7818435A
:102D8000B64B1870B748C07CB74BDB7C1843B74BC9
:102D9000DB7C9843B64BDB7CDB43B64CE47C2343C3
:102DA0001840AE4B1B781843AC4B1870AD48007DF3
:102DB000AD4B1B7D1843AD4B1B7D9843AC4B1B7D2E
:102DC000DB43AC4C247D23431840A44B1B781843B1
:102DD000A24B1870A348407DA34B5B7D1843A34BC7
:102DE0005B7D9843A24B5B7DDB43A24C647D234318
:102DF00018409A4B1B781843984B18709948807D5F
:102E0000994B9B7D184300E022E0984B9B7D9843B3
:102E1000974B9B7DDB43974CA47D234318408F4BFE
:102E20001B7818438D4B18708E48C07D8E4BDB7D10
:102E300018438E4BDB7D98438D4BDB7DDB438D4C04
:102E4000E47D23431840854B1B781843834B18704F
:102E50008348007820287DDB8248007E824B1B7EE1
:102E60001843824B1B7E9843814B1B7EDB43814C76
:102E7000247E23431840794B1B781843774B1870F6
:102E80007848407E784B5B7E1843784B5B7E984356
:102E9000774B5B7EDB43774C647E234318406F4B5C
:102EA0001B7818436D4B18706E48807E6E4B9B7E6E
:102EB00018436E4B9B7E98436D4B9B7EDB436D4C62
:102EC000A47E23431840654B1B781843634B18704E
:102ED0006448C07E644BDB7E1843644BDB7E9843C2
:102EE000634BDB7EDB43634CE47E234318405B4B48
:102EF0001B781843594B18705A48007F5A4B1B7F58
:102F000018435A4B1B7F9843594B1B7FDB43594C4B
:102F1000247F23431840514B1B7818434F4B1870A4
:102F20005048407F504B5B7F1843504B5B7F98432A
:102F30004F4B5B7FDB434F4C647F23431840474B31
:102F40001B781843454B18704648807F464B9B7F43
:102F5000184300E022E0454B9B7F9843444B9B7F06
:102F6000DB43444CA47F234318403C4B1B7818435D
:102F70003A4B18703B48C07F3B4BDB7F18433B4BC1
:102F8000DB7F98433A4BDB7FDB433A4CE47F2343C0
:102F90001840324B1B781843304B1870304800787B
:102FA000282869DB2F48203000782F4B20331B78EE
:102FB00018432E4B20331B7898432D4B20331B781E
:102FC000DB432C4C2034247823431840234B1B78BC
:102FD0001843224B1870234820304078224B20336E
:102FE0005B781843214B20335B789843204B203388
:102FF0005B78DB431F4C2034647823431840174B25
:103000001B781843154B1870164820308078164BE3
:1030100020339B781843154B20339B789843144BEF
:1030200020339B78DB43134C2034A478234318408F
:103030000A4B1B781843094B18700A482030C07897
:10304000094B2033DB781843084B2033DB78984357
:10305000074B2033DB78DB43064C0EE0D400002026
:10306000B500002063090020A3090020A308002068
:10307000E30700202308002058E02034E4782343AD
:103080001840FE4B1B781843FC4B1870FC48007925
:10309000FC4B1B791843FC4B1B799843FB4B1B796A
:1030A000DB43FB4C247923431840F44B1B78184333
:1030B000F24B1870F2484079F24B5B791843F24BAF
:1030C0005B799843F14B5B79DB43F14C64792343A3
:1030D0001840EA4B1B781843E84B1870E848807991
:1030E000E84B9B791843E84B9B799843E74B9B79D6
:1030F000DB43E74CA47923431840E04B1B7818438B
:10310000DE4B1870DE48C079DE4BDB791843DE4BAE
:10311000DB799843DD4BDB79DB43DD4CE4792343FA
:103120001840D64B1B781843D44B1870D9480078F8
:1031300030287DDBD248007AD24B1B7A1843D24B21
:103140001B7A9843D14B1B7ADB43D14C247A23431F
:103150001840CA4B1B781843C84B1870C848407AAF
:10316000C84B5B7A1843C84B5B7A9843C74B5B7A72
:10317000DB43C74C647A23431840C04B1B78184389
:10318000BE4B1870BE48807ABE4B9B7A1843BE4B2C
:103190009B7A9843BD4B9B7ADB43BD4CA47A234377
:1031A0001840B64B1B781843B44B1870B448C07A1B
:1031B000B44BDB7A1843B44BDB7A9843B34BDB7ADE
:1031C000DB43B34CE47A23431840AC4B1B781843E1
:1031D000AA4B1870AA48007BAA4B1B7B1843AA4B2A
:1031E0001B7B9843A94B1B7BDB43A94C247B2343CC
:1031F0001840A24B1B781843A04B1870A048407B86
:10320000A04B5B7B1843A04B5B7B98439F4B5B7B46
:10321000DB439F4C647B23431840984B1B78184337
:10322000964B18709648807B964B9B7B184300E02A
:1032300022E0954B9B7B9843944B9B7BDB43944CC8
:10324000A47B234318408D4B1B7818438B4B18707D
:103250008B48C07B8B4BDB7B18438B4BDB7B9843D2
:103260008A4BDB7BDB438A4CE47B23431840834B54
:103270001B781843814B18708648007838287DDB0E
:103280007F48007C7F4B1B7C18437F4B1B7C984303
:103290007E4B1B7CDB437E4C247C23431840774BC6
:1032A0001B781843754B18707548407C754B5B7CD8
:1032B0001843754B5B7C9843744B5B7CDB43744CCD
:1032C000647C234318406D4B1B7818436B4B18707C
:1032D0006B48807C6B4B9B7C18436B4B9B7C98436F
:1032E0006A4B9B7CDB436A4CA47C23431840634BB2
:1032F0001B781843614B18706148C07C614BDB7CC4
:103300001843614BDB7C9843604BDB7CDB43604CB8
:10331000E47C23431840594B1B781843574B1870D3
:103320005748007D574B1B7D1843574B1B7D9843D7
:10333000564B1B7DDB43564C247D234318404F4B9B
:103340001B7818434D4B18704D48407D4D4B5B7DAD
:1033500018434D4B5B7D98434C4B5B7DDB434C4CA2
:10336000647D23431840454B1B781843434B18702A
:103370004348807D434B9B7D184300E022E0424B55
:103380009B7D9843414B9B7DDB43414CA47D234374
:1033900018403A4B1B781843384B18703848C07D9A
:1033A000384BDB7D1843384BDB7D9843374BDB7D57
:1033B000DB43374CE47D23431840304B1B781843E4
:1033C0002E4B18703348007840287DDB2C48007E57
:1033D0002C4B1B7E18432C4B1B7E98432B4B1B7E88
:1033E000DB432B4C247E23431840244B1B7818438B
:1033F000224B18702248407E224B5B7E1843224BA2
:103400005B7E9843214B5B7EDB43214C647E2343F0
:1034100018401A4B1B781843184B18701848807EB8
:10342000184B9B7E1843184B9B7E9843174B9B7EF3
:10343000DB43174CA47E23431840104B1B781843E2
:103440000E4B18700E48C07E0E4BDB7E18430E4BA1
:10345000DB7E98430D4BDB7EDB430D4CE47E234348
:103460001840064B1B781843044B18700448007F23
:10347000044B1B7F1843044B1B7F0DE0D40000203E
:1034800083090020C3090020C3080020030800208E
:1034900043080020B50000209843264B1B7FDB43E8
:1034A000254C247F23431840244B1B781843234B7F
:1034B00018702348407F234B5B7F1843224B5B7F70
:1034C00098431C4B5B7F00E031E0DB431A4C647F88
:1034D00023431840194B1B781843184B1870184891
:1034E000807F184B9B7F1843174B9B7F9843114B52
:1034F0009B7FDB43104CA47F234318400F4B1B786A
:1035000018430E4B18700E48C07F0E4BDB7F1843DC
:103510000D4BDB7F9843074BDB7FDB43064CE47F9F
:1035200023431840054B1B781843044B187003487D
:10353000007830BD0308002043080020D40000209C
:1035400083090020C3090020C30800201CB5002403
:1035500035480078402806DB34480078C043694687
:103560000855601CC4B230480078382806DB304863
:103570000078C04369460855601CC4B22A480078E8
:10358000302806DB2B480078C04369460855601C8C
:10359000C4B225480078282806DB27480078C043B5
:1035A00069460855601CC4B21F480078202806DB15
:1035B00022480078C04369460855601CC4B21A48C6
:1035C0000078182806DB1E480078C0436946085575
:1035D000601CC4B214480078102806DB1948007833
:1035E000C04369460855601CC4B20F4800780828DB
:1035F00006DB15480078C04369460855601CC4B214
:10360000052322466946114802F03FF80122402175
:103610000F4800F098FA01200AF0A8F90022402192
:103620000B4800F090FA1CBDB50000206B00002094
:103630006A00002069000020680000206700002068
:103640006600002065000020640000205C0200206D
:103650000004004800BFFEE770B5012500F052F9F4
:1036600034202949C860294C42E000BF2648C06880
:10367000C007C00F0028F9D12348C06810210840B6
:10368000002801D0002536E01F48C068042108400A
:10369000002801D000252EE01B48006902210843C4
:1036A00019490861084644610069402108431649E8
:1036B000086100BF1448C068C007C00F0028F9D1D6
:1036C0001148C06810210840002801D0002512E0F0
:1036D0000D48C06804210840002801D000250AE0F8
:1036E000094800690221884307490861C814241861
:1036F00007488442B9D300BF0348006980210843CA
:1037000001490861284670BD0020024000F8010808
:10371000FFFF0108F8B505460C461646012000904B
:10372000334885425FD3334885425CD800F0EAF8DD
:1037300034203149C8604CE0012E03D12778641C45
:10374000761E06E020786178090208430746A41C2B
:10375000B61E00BF2848C068C007C00F0028F9D1B6
:103760002548C06810210840002802D000200090A1
:1037700031E02148C06804210840002802D0002020
:10378000009028E01C480069012108431A4908619B
:103790002F8000BF1848C068C007C00F0028F9D1AB
:1037A0001548C06810210840002802D00020009071
:1037B00011E01148C06804210840002802D0002010
:1037C000009008E00C480069400840000A49086180
:1037D000AD1C002EB0D100BF07480069802108430E
:1037E0000549086101E0002000900098F8BD000044
:1037F00000F80108FFFF01080020024070B50948E9
:10380000C46A056B466BA419002C0AD0082206492D
:10381000204602F0C5FD042203491031284602F07B
:10382000BFFD70BD80F7FF1F0E0100200146212063
:10383000405C022808D00420886300BF00222020BA
:10384000425400BF01207047086800680E22904370
:103850000A68106008680068400840000A68106044
:1038600001200A6C9040CA6B506001222120425412
:1038700000BF00222020425400BF0020E3E770B5C3
:10388000044600252120005D022803D00420A06307
:1038900001251EE0206800680E2188432168086029
:1038A0002068006840084000216808600120216C01
:1038B0008840E16B486001212120015500BF0021B3
:1038C0002020015500BF606B002802D02046616BAC
:1038D0008847284670BD000070B5044600F03AF9EC
:1038E00006462546681C002802D0054800782D1899
:1038F00000BF00F02FF9801BA842FAD370BD000072
:103900004001002000200949096980221140002956
:103910000BD00749054A51600649516011460969B3
:1039200080221140002900D0012070470020024071
:1039300023016745AB89EFCD78B503460022DDE072
:10394000012696400C683440002C7DD04D68012D36
:1039500008D04D68022D05D04D68112D02D04D685C
:10396000122D18D1986856000325B5400646AE437F
:1039700030465600CD68B540284398605868012508
:1039800095400646AE43304610264D6835402D0919
:10399000954028435860D86856000325B540064630
:1039A000AE43304656008D68B5402843D8604D6818
:1039B000022D02D04D68122D15D1D508AE001D463E
:1039C0002035A8595507EE0E0F25B5400646AE43E3
:1039D00030465607F60E0D69B5402843D508AD00B0
:1039E0001E4620367051186856000325B54006461D
:1039F000AE4330460D79AD07AD0F5600B5402843B4
:103A00001860012636074D683540B54275D100BFB4
:103A10003D4DAD69012635433B4EB5613546AD6937
:103A2000ED07ED0F009500BF00BF384D9608B600BA
:103A3000A85995072E0F0F25B5400646AE433046D0
:103A40000925ED06AB4200E057E001D100250FE06B
:103A50002F4DAB4201D101250AE02E4DAB4201D1E1
:103A6000022505E02C4DAB4201D1032500E00525E0
:103A70009607360FB5402843244D9608B600A85146
:103A8000264D28680546A5432846012636044D687C
:103A90003540B54202D10546254328461F4D2860D2
:103AA00068680546A5432846012676044D683540DA
:103AB000B54202D1054625432846184D6860A868DE
:103AC0000546A5432846012636054D683540B542D2
:103AD00002D1054625432846104DA860E8680546F2
:103AE000A5432846012676054D683540B54202D1EA
:103AF000054625432846094DE860521C0D68D5400F
:103B0000002D00D01CE778BD0010024008000140E5
:103B10000004004800080048000C00480004014070
:103B2000024613690B40002B01D0012000E0002069
:103B3000704710B5426913460B401B040C46944372
:103B40002343836110BD002A01D0816100E08162BE
:103B500070470000014800687047000038010020ED
:103B60000348006803490978401801490860704714
:103B7000380100204001002010B5064800681021DF
:103B8000084304490860002000F006F800F02EF811
:103B9000002010BD0020024070B504461048017896
:103BA0007D20C000FCF7A9FB064631460D480068A1
:103BB000FCF7A3FB054602F08FF8002801D0012096
:103BC00070BD042C07D200222146501E00F03CF8A4
:103BD0000548046001E00120F2E70020F0E7000062
:103BE00040010020440100203C01002008B500BF36
:103BF0000D488069012108430B49886108468069A6
:103C0000C007C00F009000BF00BF00BF0846C069DA
:103C1000090408430449C8610846C069090408400A
:103C2000009000BF00BF08BD0010024001460029FF
:103C300005DBCB06DB0E01229A40024B1A6000BF67
:103C40007047000000E100E070B504460D461646DE
:103C50002946204608F094FE70BD01460A680120FE
:103C60000523DB01CB189866002017235B01CB18D6
:103C700018705420805A012318435423985254201A
:103C8000805A0223184354239852002070477047EB
:103C900070B505460C4680202040802806D160077C
:103CA000400F28267043AE19811905E02820604393
:103CB0002E46FF3669368119002A03D10020087389
:103CC000CB8004E0012008730B81180C4881002090
:103CD00070BD70B504460D4628216943234628333C
:103CE000C9184A690521C9016118086F294606F0FB
:103CF0003AFF70BD70B504460D462821694323463E
:103D0000FF336933C9184A690521C9016118086F71
:103D1000294606F0C3FF70BD70B504460E468020EC
:103D20003040802808D17007400F2821484361188F
:103D300045180120687009E07007400F28214843AA
:103D40002146FF3169314518002068707007400F27
:103D5000287000BF152040012018007A012801D1E9
:103D6000022070BD0120152149016118087200BFB1
:103D70002946206807F09AFE00BF0020152149015E
:103D80006118087200BF00BFEBE770B504460E462D
:103D90003007000F6168884201D9012070BD802082
:103DA0003040802808D17007400F2821484361180F
:103DB00045180120687009E07007400F282148432A
:103DC0002146FF3169314518002068700020A87035
:103DD0007007400F287000BF152040012018007A9E
:103DE000012801D10220D9E70120152149016118DC
:103DF000087200BF2946206807F0AEFF00BF002010
:103E0000152149016118087200BF00BFC6E7000014
:103E1000F8B505460C4617460120800338400028B7
:103E20004ED028684030008A2178C9004018801C94
:103E30000122920229688918405A8605B60DA069A8
:103E4000B04203D3A069801BA06101E00020A06103
:103E5000A069002813D100BF227892002968895AEE
:103E60003F4A114008460121490348408900014367
:103E70008022114323789B002A68D15200BF402042
:103E80003840002813D000BF00BF22789200296874
:103E9000895A344A114008460121C9030143C0220E
:103EA000114323789B002A68D15200BF00BF002E27
:103EB00054D0228961693346286808F0E7FC4DE058
:103EC00028684030008A2178C9004018801D0122EE
:103ED000920229688918405A8605B60DA069B04239
:103EE00003D3A069801BA06101E00020A061A0694C
:103EF000002813D100BF227892002968895A184AF5
:103F000011400846012149034840890001438022AD
:103F1000114323789B002A68D15200BF40203840CB
:103F2000002813D100BF00BF227892002968895A67
:103F30000C4A114008460121C9030143C022114324
:103F400023789B002A68D15200BF00BF002E05D005
:103F5000628961693346286808F098FC3046F8BDEC
:103F60008FBF00008F8F0000F7B584B005460C4668
:103F700040210698084000287ED028684030008AFA
:103F80002178C9004018801C0122920229688918F2
:103F9000405A8705BF0DA069B84203D9A069C01B6C
:103FA000A06101E00020A061A06900281ED1217855
:103FB0002846FFF78EFE0121890306980840002855
:103FC00013D000BF00BF227892002968895AC94ADD
:103FD000114008460121C90301438122D201114346
:103FE00023789B002A68D15200BF69E1012189032F
:103FF00006980840002814D000BF00BF2278920025
:104000002968895ABB4A114008460121C903014366
:104010008122D201114323789B002A68D15200BF2C
:1040200000BF2420005D0128DFD16069C0196061F4
:10403000E069C019E0612169206A884204D32669D9
:10404000206A801B20620DE0206A002804D13E46D1
:1040500000212420015505E0002124200155266A75
:104060000020206200BF607800283CD100BF296892
:1040700003912968403100E050E00A8A0399511801
:1040800003912178C900891C01239B02039AD2184D
:104090008918084600BF002E09D10288964B1A40A5
:1040A000028002880123DB031A43028019E03E2EBE
:1040B0000AD800BF7108F207D20F002A00D0491CAD
:1040C0008A06120C02800CE000BF7109F206D20EC3
:1040D000002A00D1491E8A020123DB031A43028011
:1040E00000BF00BF11E0607801280ED100BF286832
:1040F0002A684032128A10182278D200921C0123BA
:104100009B02C318D1180E8000BF00BFB3B2228932
:1041100061692868039008F0E1FBD1E0286840302D
:10412000008A2178C9004018801D01229202296866
:104130008918405A8705BF0DA069B84203D3A0690A
:10414000C01BA06101E00020A061A06900281ED171
:1041500021782846FFF7BDFD012189030698084014
:104160000028DAD100BF00BF227892002968895A5E
:10417000604A114008460121C90301438122D2014E
:10418000114323789B002A68D15200BF98E0012197
:10419000890306980840002814D100BF00BF227888
:1041A00092002968895A534A114008460121C903DF
:1041B00001438122D201114323789B002A68D15206
:1041C00000BF00BF2420005D012879D16069C019BB
:1041D0006061E069C019E0612169206A884204D306
:1041E0002669206A801B20620DE0206A002804D125
:1041F0003E4600212420015505E0266A0020206269
:1042000000212420015500BF286803906078002811
:104210003AD100BF29680191296840310A8A019981
:10422000511801912178C900891D01239B02019A2F
:10423000D2188918084600BF002E09D102882E4BDB
:104240001A40028002880123DB031A43028019E02E
:104250003E2E0AD800BF7108F207D20F002A00D004
:10426000491C8A06120C02800CE000BF7109F2069C
:10427000D20E002A00D1491E8A020123DB031A4311
:10428000028000BF00BF13E06078012810D12868C9
:104290004030018A0398081803902078C000801DE0
:1042A0000122920203998918401802900298068010
:1042B00000BFB3B2628961692868039008F00EFB01
:1042C00000BF227892002968895A0A4A3032114088
:1042D000084610214840202148408902014380229D
:1042E000114323789B002A68D15200BF002007B0F9
:1042F000F0BD00008F8F0000FF83000002464807DA
:10430000400F282358431346FF336933C018C06950
:104310007047FFB581B005460E461F46002000904D
:1043200080203040802808D17007400F2821484362
:10433000691844180120607009E07007400F2821B7
:1043400048432946FF3169314418002060707007E6
:10435000400F207003982061E7706078002801D03A
:104360002078E081022F01D10020207100BF1520AC
:1043700040012818007A012802D1022005B0F0BDC2
:104380000120152149016918087200BF21462868DB
:1043900007F070F900BF0020152149016918087263
:1043A00000BF0098EAE7FFB581B005460E46174604
:1043B0007007400F282148432946FF3169314418CE
:1043C00067610498A0610020E06160707007400F91
:1043D00020707007400F002804D12146286807F09C
:1043E00055FD03E02146286807F050FD002005B088
:1043F000F0BD70B504460E467007400F61688842F4
:1044000001D9012070BD80203040802808D170077C
:10441000400F28214843611845180120687007E0C3
:10442000282070432146FF3169314518002068700B
:104430000120A8707007400F287000BF15204001B0
:104440002018007A012801D10220DBE70120152184
:1044500049016118087200BF2946206807F0E8FC8E
:1044600000BF0020152149016118087200BF00BF7C
:10447000C8E7FFB581B005460E461F467007400FDE
:10448000282148436918441803986061A7610121F5
:104490002420015527620020E06101206070700730
:1044A000400F20707007400F002804D12146286873
:1044B00007F0ECFC03E02146286807F0E7FC002049
:1044C00005B0F0BD10B50446206808F0DBF9012105
:1044D000C9030840884202D1204603F031F8206821
:1044E00008F0D0F901218902084088420ED12068E5
:1044F00040308088714908402168403188802046DA
:1045000000F08EF90021204600F0BFF9206808F085
:10451000B9F9012189030840884207D12068403059
:10452000808867490840216840318880206808F009
:10453000A9F9012149030840884207D12068403089
:10454000808860490840216840318880206808F0F0
:1045500099F901210903084088422AD12068403096
:10456000008859490840216840310880206840305F
:1045700000885549091F08402168403108801720EC
:10458000400120180078012808D100201721490196
:104590006118087000212046FFF779FB204600F0E3
:1045A00055F92068403080884849084021684031EA
:1045B0008880206808F066F90121C9020840884215
:1045C0001AD1206840300088082108432168403112
:1045D00008802068403080883D490840216840318B
:1045E00088802068403000880421084321684031D9
:1045F0000880204600F096F9206808F043F98021F1
:104600000840802835D12068403080882E497C3988
:104610000840216840318880172040012018007828
:10462000002823D1206840300088042108432168F5
:104630004031088020684030008808210843216804
:104640004031088001201721490161180870206855
:104650004030808AF021084080080521C901611896
:10466000486601212046FFF712FB02E0204600F0D9
:1046700059F9206808F006F90121490208408842EA
:104680000AD12068403080881249084021684031B2
:104690008880204600F0F0F8206808F0F3F8FF2149
:1046A00001310840884208D120684030808806499E
:1046B000FC39084021684031888010BDFFFB0000B4
:1046C000FFBF0000FFDF0000FBFF0000FFEF000066
:1046D000FFF70000FFFD000030B585B00446002C58
:1046E00002D1012005B030BD152040012018407ACC
:1046F000002806D11521490161180872204600F0F2
:104700006BF803201521490161184872206807F0F1
:1047100017FB002520E0012228206843214628318C
:1047200040184270282068430D54282068434018E0
:10473000C5810022282068434018C27028206843A1
:1047400040180261282068434018426128206843CD
:1047500040188261681CC5B26068A842DBD8002599
:104760001CE00022282068432146FF3169314018AF
:104770004270282068430D54282068434018C270B6
:10478000282068434018026128206843401842618D
:104790002820684340188261681CC5B26068A8423E
:1047A000DFD81422214610316846FBF7CDFC2046A5
:1047B0000FC807F0B7FA0021242001550120152168
:1047C000490161184872E069012802D12046FFF7CB
:1047D00044FA002086E7000038B504460E492068F8
:1047E000884217D100BF0D48C0690121C90508439F
:1047F0000A49C8610846C0690121C90508400090FE
:1048000000BF00BF002211461F20FFF71DFA1F2026
:10481000FFF70CFA38BD0000005C004000100240B9
:1048200070B504460125A068022801D0FEF712FFEA
:104830000521C9016118086F294606F0A3FB05216F
:10484000C9016118086F06F03BFB70BD10B5044646
:10485000A069002807D00748006906218843054958
:10486000086105F059F80521C9016118086F06F0C3
:1048700060FB10BD00ED00E010B504460521C90144
:104880006118086F06F066FB10BD70B504460D4652
:1048900000BF152040012018007A012801D1022014
:1048A00070BD0120152149016118087200BF242044
:1048B00005552946206808F009F800BF0020152199
:1048C00049016118087200BF00BFE9E710B504464E
:1048D0000521C9016118086F2B210901611806F033
:1048E00068FB10BD10B5044600BF1520400120181C
:1048F000007A012801D1022010BD012015214901B3
:104900006118087200BF206807F0A6FF206807F052
:10491000FFF900BF0020152149016118087200BF8E
:1049200000BFE9E710B504460521C9016118086F09
:1049300006F0A9FBA069002805D0034800690621FC
:1049400008430149086110BD00ED00E0F8B50446D8
:1049500000260025012109042068084088427AD1F8
:1049600000275248C0690903084000280DD100BF44
:104970004E48C06908434D49C8610846C0690904EA
:104980000840009000BF00BF012749480068FF2190
:1049900001310840002816D14548006808434449C1
:1049A0000860FFF7D7F8064606E0FFF7D3F8801B4C
:1049B000642801D90320F8BD3D480068FF2101317A
:1049C00008400028F1D03948006A03210902084054
:1049D0000546002D2DD060680840A84229D03348F4
:1049E000006A884305463148006A012109040843EA
:1049F0002E4908620846006A0121090488432B49B0
:104A0000086208460562E807C00F002811D0FFF7CA
:104A1000A1F8064607E0FFF79DF8801B254988426C
:104A200001D90320C7E72148006A02210840002875
:104A3000F1D01E48006A03210902884361680843D7
:104A40001A490862012F05D10846C0690904884344
:104A50001649C86100BF2078C007C00F002807D0E2
:104A60001248006B80088000A16808430F49086362
:104A7000202120680840202807D10C48006B102115
:104A80008843E16808430949086301214904206813
:104A90000840884207D10548006B8021884321697E
:104AA000084302490863002085E700000010024027
:104AB000007000408813000070B504460D46002CBD
:104AC00001D1012070BD52480068C007C00FA84244
:104AD0000ED24F4800684008400028434C49086007
:104AE00008460068C007C00FA84201D00120E9E7CE
:104AF000022120680840022814D1042120680840BF
:104B0000042807D143484068072109028843401818
:104B1000404948603F484068F0218843A168084305
:104B20003C4948602078C007C00F00283BD060682F
:104B3000012808D1374800680121490408400028AD
:104B400015D10120BEE76068022808D1314800680D
:104B5000012149060840002809D10120B2E72D486B
:104B6000006802210840002801D10120AAE7294855
:104B70004068800880006168084326494860FEF765
:104B8000E9FF064607E0FEF7E5FF801B2249884261
:104B900001D9032096E71F4840680C21084061684E
:104BA00089008842EFD11A480068C007C00FA842A8
:104BB0000ED917480068400840002843144908608F
:104BC00008460068C007C00FA84201D0012079E75D
:104BD000042120680840042808D10E4840680721B5
:104BE00009028843E16808430A49486000F032F846
:104BF00008494968F02211400909084A515CC84037
:104C0000074908600020FEF7C7FF00205AE70000B0
:104C100000200240001002408813000066E30008F4
:104C20004401002001480068704700004401002052
:104C300000B5FFF7F7FF0549496807221202114046
:104C4000090A034A515CC84000BD00000010024040
:104C500076E30008F0B589B029A001460EC9C06806
:104C600005AC0EC408902AA001460EC9C06801AC6C
:104C70000EC4049000250024002700260020009088
:104C8000274845680C202840002832D0042802D04C
:104C900008282DD102E0234800902DE00F20800449
:104CA0002840800C05A90E5C1D48C06A0007000F53
:104CB00001A90C5C0320C00328400121090488429B
:104CC0000AD12246002317481946FBF775FA3146E8
:104CD00007F030FE074609E0224600231148194636
:104CE000FBF76AFA314607F025FE0746009703E016
:104CF00000BF0C48009000BF00BF009809B0F0BD95
:104D000002030405060708090A0B0C0D0E0F10100C
:104D10000102030405060708090A0B0C0D0E0F100B
:104D20000010024000127A00FEB50446002C01D1AA
:104D30000120FEBD2078C007C00F002872D0FC48BB
:104D400040680C21084004280CD0F948406808400D
:104D5000082813D1F6484068490308400121090496
:104D600088420BD1F248006801214904084000281C
:104D70006BD06068002868D10120DAE700BF606866
:104D8000012807D1EA480068012109040843E849DD
:104D9000086031E0606800280ED1E5480068012114
:104DA00009048843E2490860084600680121890433
:104DB0008843DF4908601FE0606805280ED1DC48A1
:104DC0000068012189040843D94908600846006841
:104DD000012109040843D64908600DE0D448006861
:104DE000012109048843D24908600846006801216E
:104DF00089048843CE49086000BF6068002812D04B
:104E0000FEF7A8FE054606E0FEF7A4FE401B642858
:104E100001D903208DE7C6480068012149040840F4
:104E20000028F1D011E0FEF795FE054606E0FEF7FA
:104E300091FE401B642801D903207AE7BC48006832
:104E40000121490408400028F1D1022120680840CE
:104E5000022862D1B64840680C21084000280CD0D6
:104E6000B3484068084008281CD1B148406849034D
:104E700008400121C903884214D1AD4800680221CD
:104E80000840002804D0E068012801D0012050E744
:104E9000A7480068F82188432169C9000843A4494C
:104EA00008603AE0E068002820D0A14800680121AD
:104EB00008439F490860FEF74DFE054606E0FEF7F1
:104EC00049FE401B022801D9032032E798480068B8
:104ED000022108400028F2D095480068F821884354
:104EE0002169C90008439249086016E090480068AB
:104EF000400840008E490860FEF72CFE054606E09B
:104F0000FEF728FE401B022801D9032011E788483C
:104F10000068022108400028F2D1082120680840DA
:104F2000082831D1E069002817D08148406A012162
:104F300008437F494862FEF70DFE054606E0FEF78E
:104F400009FE401B022801D90320F2E67848406A96
:104F5000022108400028F2D016E07548406A400857
:104F6000400073494862FEF7F5FD054606E0FEF78E
:104F7000F1FD401B022801D90320DAE66C48406AA3
:104F8000022108400028F2D10421206808400428AA
:104F900072D1002001906648C06989060840002847
:104FA0000ED100BF6248C06908436149C861084624
:104FB000C06909040840009000BF00BF01200190B3
:104FC0005C480068FF2101310840002816D159488B
:104FD0000068084357490860FEF7BCFD054606E037
:104FE000FEF7B8FD401B642801D90320A1E6514813
:104FF0000068FF21013108400028F1D000BFA068FF
:10500000012806D14A48006A01210843484908623C
:105010002AE0A06800280BD14548006A41084900F1
:1050200043480162006A04218843414908621BE049
:10503000A06805280CD13E48006A042108433C4979
:1050400008620846006A01210843394908620BE0FA
:105050003748006A40084000354908620846006A3F
:10506000042188433249086200BFA068002813D099
:10507000FEF770FD054608E02BE0FEF76BFD401BD8
:105080002D49884201D9032053E62948006A0221AC
:1050900008400028F1D011E0FEF75CFD054607E06E
:1050A000FEF758FD411B2448814201D9032040E608
:1050B0001F48006A022108400028F1D10198012808
:1050C00006D11B48C0690121090788431849C861F6
:1050D00000BF10212068084010285FD160690128B6
:1050E0002CD11348406B04210843114948630846FA
:1050F000406B012108430E494863FEF72BFD05462E
:1051000006E0FEF727FD401B022801D9032010E628
:105110000748406B022108400028F2D00448406B49
:10512000F8218843A169C90008430149486335E073
:105130000010024000700040881300006069401DAC
:1051400000280FD15A48406B0421884358494863CE
:105150000846406BF8218843A169C90008435449B7
:1051600048631BE05248406B0421084350494863A0
:105170000846406B400840004863FEF7EBFC0546DC
:1051800006E0FEF7E7FC401B022801D90320D0E52A
:105190004748406B022108400028F2D1206A0028CD
:1051A0004FD0434840680C210840082864D0206A4A
:1051B000022847D13E4800680121090688433C493E
:1051C0000860FEF7C7FC054606E0FEF7C3FC401B7F
:1051D000022801D90320ACE53548006801214906C1
:1051E00008400028F1D100BF3148C06A0009000121
:1051F000E16A08432E49C862616AA06A08432C49E3
:1052000049687B22D203914308432949486000BF83
:105210000846006801210906084325490860FEF791
:1052200099FC054606E0FEF795FC401B022801D9D3
:1052300003207EE51E480068012149060840002839
:10524000F1D033E01A480068012109068843184963
:105250000860FEF77FFC054606E0FEF77BFC401B7E
:10526000022801D9032064E511480068012149069C
:1052700008400028F1D119E0206A012800D158E542
:105280000B484668C76A0320C0033040616A884201
:105290000AD13907090FE06A814205D10F20800445
:1052A0003040A16A884201D0012042E5002040E55B
:1052B0000010024070B50446002C01D1012070BDE1
:1052C000606A002808D1FF2105316068884200D15A
:1052D00005E00021E16102E000212161616100211E
:1052E000A1625D20005D002804D15C2001552046AC
:1052F00000F066F802215D20015520680068402119
:1053000088432168086007210902E068884201D9C2
:10531000002501E001252D030F210902E0688842E4
:1053200006D007210902E068884201D00021A1626D
:10533000FF2105316068084021229202A1681140D6
:1053400008430222216911400843217DC907C90F82
:1053500008431202A169114008433822E169114053
:1053600008438022216A114008439201A16A11403A
:10537000084321680860A069000C0421084010223D
:10538000616A114008430822616B114008430F22F3
:105390001202E16811400843012109032940084332
:1053A000216848602068C0690121C90288432168DA
:1053B000C8610020206601215D20015500207EE7A4
:1053C00010B586B00446142101A8FAF794FF3849B5
:1053D000206888422BD100BF364880698914084371
:1053E000344988610846806989140840009000BFEC
:1053F00000BF00BF2F484069890108432D4948611B
:1054000008464069012189040840009000BF00BFA0
:105410002820019002200290002003900320049095
:105420000020059001A92448FEF786FA3EE02349B2
:10543000206888423AD100BF1E48C0690914084359
:105440001C49C8610846C0690121890308400090D1
:1054500000BF00BF00BF1748406909010843154954
:10546000486108464069012189040840009000BF56
:1054700000BF081201900220029000200390032038
:1054800004900520059001A90B48FEF755FA03206A
:1054900080030190022002900020039003200490DA
:1054A0000020059001A90448FEF746FA06B010BD99
:1054B0000030014000100240000400480038004065
:1054C000FFB583B0044616461D4600200290FF211A
:1054D0000531606888420ED1A06800280BD10421F4
:1054E0005D20015533460095049A1146204600F090
:1054F000B2F907B0F0BD00BF5C20005D012801D10A
:105500000220F6E701215C20015500BFFEF722FBD7
:1055100007465D20005D012802D002200290AAE02B
:105520000498002801D0002E02D101200290A2E0B0
:1055300004215D2001550020206604982064442049
:105540000653462006530020A063A087E087E0644E
:10555000206507210902E068884207D92068406871
:105560000121090388432168486006E020684068FB
:10557000012109030843216848600121C903A0688B
:1055800088420CD120680068402188432168086067
:105590002068006801218903884321680860206829
:1055A000006840210840402804D020680068084373
:1055B0002168086007210902E068884226D820E0B7
:1055C00020688068C007C00F00280DD02068007BCD
:1055D000216C0870206C401C20644620005B401E3B
:1055E00081B2462001530CE0FEF7B4FAC01BA8427A
:1055F00002D3681C002801D1002D02D103200290A3
:1056000039E04620005B0028DAD125E020E0206860
:105610008068C007C00F00280DD02068C068216CCA
:105620000880206C801C20644620005B401E81B2F4
:10563000462001530CE0FEF78DFAC01BA84202D3AE
:10564000681C002801D1002D02D10320029012E035
:105650004620005B0028DAD13A462946204603F06E
:1056600001FD002801D020202066206E002801D0F6
:105670000120029000BF01215D20015500BF0021E3
:105680005C20015500BF029833E7FFB583B00446A4
:1056900016461D460020029000BF5C20005D0128D8
:1056A00002D1022007B0F0BD01215C20015500BFEE
:1056B000FEF750FA074601965D20005D012802D0F2
:1056C00002200290BDE00498002801D0002E02D1F3
:1056D00001200290B5E003215D20015500202066E5
:1056E0000498A063A687E687002020640021442058
:1056F00001534620015300202065E0640121C903C5
:10570000A06888420CD12068006840218843216845
:105710000860206800680121890308432168086047
:105720002068006840210840402804D020680068B4
:1057300008432168086007210902E068884232D9DD
:105740006068002802D00198012809D1A06B008868
:105750002168C860A06B801CA063E08F401EE087BA
:105760001DE0206880680221084002280AD1A06B51
:1057700000882168C860A06B801CA063E08F401E79
:10578000E0870CE0FEF7E6F9C01BA84202D3681CD4
:10579000002801D1002D02D10320029051E0E08FBA
:1057A0000028DED131E06068002802D0019801288D
:1057B00009D1A06B007821680873A06B401CA0631E
:1057C000E08F401EE0871DE02068806802210840CD
:1057D00002280AD1A06B007821680873A06B401CD6
:1057E000A063E08F401EE0870CE0FEF7B3F9C01B1A
:1057F000A84202D3681C002801D1002D02D1032049
:1058000002901EE0E08F0028DED13A46294620466D
:1058100003F06FFC002801D020202066A06800283B
:1058200009D100BF00902068C0680090206880689F
:10583000009000BF00BF206E002801D00120029020
:1058400000BF01215D20015500BF00215C200155F2
:1058500000BF029826E7FFB585B004461D460E9EA0
:10586000012001900020009000BF5C20005D012815
:1058700002D1022009B0F0BD01215C20015500BF1A
:10588000FEF768F907465D20005D029060680390AE
:105890000495029801280DD0FF2105310398884214
:1058A00005D1A068002802D10298042802D0022065
:1058B0000090FBE00698002804D00798002801D04B
:1058C000002D02D101200090F0E05D20005D042851
:1058D00002D005215D200155002020660798206434
:1058E00046200553442005530698A063E587A58705
:1058F0000020E064206507210902E068884207D99A
:10590000206840680121090388432168486006E057
:105910002068406801210903084321684860206825
:10592000006840210840402804D0206800680843EF
:105930002168086007210902E068884254D960683C
:10594000002802D00498012809D1A06B00882168A2
:10595000C860A06B801CA063E08F401EE0873BE026
:105960002068806802210840022811D1E08F0028B9
:105970000ED0019801280BD1A06B00882168C86067
:10598000A06B801CA063E08F401EE0870020019088
:1059900020688068C007C00F002812D04620005B36
:1059A00000280ED02068C068216C0880206C801C04
:1059B00020644620005B401E81B246200153012036
:1059C0000190FEF7C7F8C01BB04205D3701C002839
:1059D00002D00320009069E0E08F0028C0D146206B
:1059E000005B0028BCD155E06068002802D0049814
:1059F000012809D1A06B007821680873A06B401CB6
:105A0000A063E08F401EE0873DE0206880680221AF
:105A10000840022811D1E08F00280ED001980128FB
:105A20000BD1A06B007821680873A06B401CA063A9
:105A3000E08F401EE0870020019020688068C0074A
:105A4000C00F002812D04620005B00280ED020682E
:105A5000007B216C0870206C401C20644620005B99
:105A6000401E81B24620015301200190FEF772F8DA
:105A7000C01BB04202D3701C002801D1002E02D1FD
:105A80000320009012E0E08F0028BED14620005B8A
:105A90000028BAD13A463146204603F02AFB0028B6
:105AA00003D0012000902020206600BF01215D204E
:105AB000015500BF00215C20015500BF0098D9E6C8
:105AC00010B570480078401CC0B26E4908700A28B2
:105AD0007EDB002008706C480078401C6A49087022
